{
  "contractName": "PackagingAgreements",
  "abi": [
    {
      "inputs": [],
      "stateMutability": "nonpayable",
      "type": "constructor"
    },
    {
      "inputs": [],
      "name": "creator",
      "outputs": [
        {
          "internalType": "address",
          "name": "",
          "type": "address"
        }
      ],
      "stateMutability": "view",
      "type": "function",
      "constant": true
    },
    {
      "inputs": [
        {
          "internalType": "uint256",
          "name": "",
          "type": "uint256"
        }
      ],
      "name": "materialDimensions",
      "outputs": [
        {
          "internalType": "uint256",
          "name": "id",
          "type": "uint256"
        },
        {
          "internalType": "uint256",
          "name": "weight",
          "type": "uint256"
        },
        {
          "internalType": "uint256",
          "name": "height",
          "type": "uint256"
        },
        {
          "internalType": "uint256",
          "name": "volume",
          "type": "uint256"
        },
        {
          "internalType": "uint256",
          "name": "fillingQuantity",
          "type": "uint256"
        },
        {
          "internalType": "string",
          "name": "weightUOM",
          "type": "string"
        },
        {
          "internalType": "string",
          "name": "heightUOM",
          "type": "string"
        },
        {
          "internalType": "string",
          "name": "volumeUOM",
          "type": "string"
        },
        {
          "internalType": "string",
          "name": "quantityUOM",
          "type": "string"
        }
      ],
      "stateMutability": "view",
      "type": "function",
      "constant": true
    },
    {
      "inputs": [
        {
          "internalType": "uint256",
          "name": "",
          "type": "uint256"
        }
      ],
      "name": "packagingAgreement",
      "outputs": [
        {
          "internalType": "uint256",
          "name": "id",
          "type": "uint256"
        },
        {
          "internalType": "string",
          "name": "projectName",
          "type": "string"
        },
        {
          "internalType": "string",
          "name": "internalNumber",
          "type": "string"
        },
        {
          "internalType": "string",
          "name": "externalNumber",
          "type": "string"
        },
        {
          "internalType": "string",
          "name": "processor",
          "type": "string"
        },
        {
          "internalType": "uint256",
          "name": "dueDate",
          "type": "uint256"
        },
        {
          "internalType": "uint256",
          "name": "trialDeliveryStartDate",
          "type": "uint256"
        },
        {
          "internalType": "uint256",
          "name": "productiveDeliveryStartdate",
          "type": "uint256"
        },
        {
          "internalType": "uint256",
          "name": "version",
          "type": "uint256"
        },
        {
          "internalType": "uint256",
          "name": "status",
          "type": "uint256"
        },
        {
          "internalType": "string",
          "name": "materialNumberInternal",
          "type": "string"
        }
      ],
      "stateMutability": "view",
      "type": "function",
      "constant": true
    },
    {
      "inputs": [
        {
          "internalType": "string",
          "name": "_projectName",
          "type": "string"
        },
        {
          "internalType": "string",
          "name": "_internalNumber",
          "type": "string"
        },
        {
          "internalType": "string",
          "name": "_externalNumber",
          "type": "string"
        },
        {
          "internalType": "string",
          "name": "_processor",
          "type": "string"
        },
        {
          "internalType": "uint256",
          "name": "_dueDate",
          "type": "uint256"
        },
        {
          "internalType": "uint256",
          "name": "_trialDeliveryStartDate",
          "type": "uint256"
        },
        {
          "internalType": "uint256",
          "name": "_productiveDeliveryStartdate",
          "type": "uint256"
        },
        {
          "internalType": "uint256",
          "name": "_version",
          "type": "uint256"
        },
        {
          "internalType": "uint256",
          "name": "_status",
          "type": "uint256"
        },
        {
          "internalType": "string",
          "name": "_materialNumberInternal",
          "type": "string"
        }
      ],
      "name": "createPackagingAgreement",
      "outputs": [
        {
          "internalType": "uint256",
          "name": "",
          "type": "uint256"
        }
      ],
      "stateMutability": "nonpayable",
      "type": "function"
    },
    {
      "inputs": [
        {
          "internalType": "uint256",
          "name": "_id",
          "type": "uint256"
        },
        {
          "internalType": "uint256[2]",
          "name": "_length_breadth",
          "type": "uint256[2]"
        },
        {
          "internalType": "uint256",
          "name": "_weight",
          "type": "uint256"
        },
        {
          "internalType": "uint256",
          "name": "_height",
          "type": "uint256"
        },
        {
          "internalType": "uint256",
          "name": "_volume",
          "type": "uint256"
        },
        {
          "internalType": "uint256",
          "name": "_fillingQuantity",
          "type": "uint256"
        },
        {
          "internalType": "string[2]",
          "name": "_lengthUOM_breadthUOM",
          "type": "string[2]"
        },
        {
          "internalType": "string",
          "name": "_weightUOM",
          "type": "string"
        },
        {
          "internalType": "string",
          "name": "_heightUOM",
          "type": "string"
        },
        {
          "internalType": "string",
          "name": "_volumeUOM",
          "type": "string"
        },
        {
          "internalType": "string",
          "name": "_quantityUOM",
          "type": "string"
        }
      ],
      "name": "createMaterialDimensions",
      "outputs": [],
      "stateMutability": "nonpayable",
      "type": "function"
    },
    {
      "inputs": [
        {
          "internalType": "uint256",
          "name": "id",
          "type": "uint256"
        }
      ],
      "name": "getPackagingAgreement",
      "outputs": [
        {
          "components": [
            {
              "internalType": "uint256",
              "name": "id",
              "type": "uint256"
            },
            {
              "internalType": "string",
              "name": "projectName",
              "type": "string"
            },
            {
              "internalType": "string",
              "name": "internalNumber",
              "type": "string"
            },
            {
              "internalType": "string",
              "name": "externalNumber",
              "type": "string"
            },
            {
              "internalType": "string",
              "name": "processor",
              "type": "string"
            },
            {
              "internalType": "uint256",
              "name": "dueDate",
              "type": "uint256"
            },
            {
              "internalType": "uint256",
              "name": "trialDeliveryStartDate",
              "type": "uint256"
            },
            {
              "internalType": "uint256",
              "name": "productiveDeliveryStartdate",
              "type": "uint256"
            },
            {
              "internalType": "uint256",
              "name": "version",
              "type": "uint256"
            },
            {
              "internalType": "uint256",
              "name": "status",
              "type": "uint256"
            },
            {
              "internalType": "string",
              "name": "materialNumberInternal",
              "type": "string"
            }
          ],
          "internalType": "struct PackagingAgreements.PackagingAgreement",
          "name": "",
          "type": "tuple"
        }
      ],
      "stateMutability": "view",
      "type": "function",
      "constant": true
    },
    {
      "inputs": [
        {
          "internalType": "uint256",
          "name": "id",
          "type": "uint256"
        }
      ],
      "name": "getProjectName",
      "outputs": [
        {
          "internalType": "string",
          "name": "",
          "type": "string"
        }
      ],
      "stateMutability": "view",
      "type": "function",
      "constant": true
    },
    {
      "inputs": [
        {
          "internalType": "uint256",
          "name": "id",
          "type": "uint256"
        }
      ],
      "name": "getInternalNumber",
      "outputs": [
        {
          "internalType": "string",
          "name": "",
          "type": "string"
        }
      ],
      "stateMutability": "view",
      "type": "function",
      "constant": true
    },
    {
      "inputs": [
        {
          "internalType": "uint256",
          "name": "id",
          "type": "uint256"
        }
      ],
      "name": "getExternalNumber",
      "outputs": [
        {
          "internalType": "string",
          "name": "",
          "type": "string"
        }
      ],
      "stateMutability": "view",
      "type": "function",
      "constant": true
    },
    {
      "inputs": [
        {
          "internalType": "uint256",
          "name": "id",
          "type": "uint256"
        }
      ],
      "name": "getProcessor",
      "outputs": [
        {
          "internalType": "string",
          "name": "",
          "type": "string"
        }
      ],
      "stateMutability": "view",
      "type": "function",
      "constant": true
    },
    {
      "inputs": [
        {
          "internalType": "uint256",
          "name": "id",
          "type": "uint256"
        }
      ],
      "name": "getMaterialNumberInternal",
      "outputs": [
        {
          "internalType": "string",
          "name": "",
          "type": "string"
        }
      ],
      "stateMutability": "view",
      "type": "function",
      "constant": true
    },
    {
      "inputs": [
        {
          "internalType": "uint256",
          "name": "id",
          "type": "uint256"
        }
      ],
      "name": "getDueDate",
      "outputs": [
        {
          "internalType": "uint256",
          "name": "",
          "type": "uint256"
        }
      ],
      "stateMutability": "view",
      "type": "function",
      "constant": true
    },
    {
      "inputs": [
        {
          "internalType": "uint256",
          "name": "id",
          "type": "uint256"
        }
      ],
      "name": "getTrialDeliveryStartDate",
      "outputs": [
        {
          "internalType": "uint256",
          "name": "",
          "type": "uint256"
        }
      ],
      "stateMutability": "view",
      "type": "function",
      "constant": true
    },
    {
      "inputs": [
        {
          "internalType": "uint256",
          "name": "id",
          "type": "uint256"
        }
      ],
      "name": "getProductiveDeliveryStartdate",
      "outputs": [
        {
          "internalType": "uint256",
          "name": "",
          "type": "uint256"
        }
      ],
      "stateMutability": "view",
      "type": "function",
      "constant": true
    },
    {
      "inputs": [
        {
          "internalType": "uint256",
          "name": "id",
          "type": "uint256"
        }
      ],
      "name": "getVersion",
      "outputs": [
        {
          "internalType": "uint256",
          "name": "",
          "type": "uint256"
        }
      ],
      "stateMutability": "view",
      "type": "function",
      "constant": true
    },
    {
      "inputs": [
        {
          "internalType": "uint256",
          "name": "id",
          "type": "uint256"
        }
      ],
      "name": "getStatus",
      "outputs": [
        {
          "internalType": "uint256",
          "name": "",
          "type": "uint256"
        }
      ],
      "stateMutability": "view",
      "type": "function",
      "constant": true
    },
    {
      "inputs": [
        {
          "internalType": "uint256",
          "name": "id",
          "type": "uint256"
        }
      ],
      "name": "getMaterialDimension",
      "outputs": [
        {
          "components": [
            {
              "internalType": "uint256",
              "name": "id",
              "type": "uint256"
            },
            {
              "internalType": "uint256[2]",
              "name": "length_breadth",
              "type": "uint256[2]"
            },
            {
              "internalType": "uint256",
              "name": "weight",
              "type": "uint256"
            },
            {
              "internalType": "uint256",
              "name": "height",
              "type": "uint256"
            },
            {
              "internalType": "uint256",
              "name": "volume",
              "type": "uint256"
            },
            {
              "internalType": "uint256",
              "name": "fillingQuantity",
              "type": "uint256"
            },
            {
              "internalType": "string[2]",
              "name": "lengthUOM_breadthUOM",
              "type": "string[2]"
            },
            {
              "internalType": "string",
              "name": "weightUOM",
              "type": "string"
            },
            {
              "internalType": "string",
              "name": "heightUOM",
              "type": "string"
            },
            {
              "internalType": "string",
              "name": "volumeUOM",
              "type": "string"
            },
            {
              "internalType": "string",
              "name": "quantityUOM",
              "type": "string"
            }
          ],
          "internalType": "struct PackagingAgreements.MaterialDimensions",
          "name": "",
          "type": "tuple"
        }
      ],
      "stateMutability": "view",
      "type": "function",
      "constant": true
    },
    {
      "inputs": [
        {
          "internalType": "uint256",
          "name": "id",
          "type": "uint256"
        }
      ],
      "name": "getMaterialDimensionLength",
      "outputs": [
        {
          "internalType": "uint256",
          "name": "",
          "type": "uint256"
        },
        {
          "internalType": "string",
          "name": "",
          "type": "string"
        }
      ],
      "stateMutability": "view",
      "type": "function",
      "constant": true
    },
    {
      "inputs": [
        {
          "internalType": "uint256",
          "name": "id",
          "type": "uint256"
        }
      ],
      "name": "getMaterialDimensionBreadth",
      "outputs": [
        {
          "internalType": "uint256",
          "name": "",
          "type": "uint256"
        },
        {
          "internalType": "string",
          "name": "",
          "type": "string"
        }
      ],
      "stateMutability": "view",
      "type": "function",
      "constant": true
    },
    {
      "inputs": [
        {
          "internalType": "uint256",
          "name": "id",
          "type": "uint256"
        }
      ],
      "name": "getMaterialDimensionWeight",
      "outputs": [
        {
          "internalType": "uint256",
          "name": "",
          "type": "uint256"
        },
        {
          "internalType": "string",
          "name": "",
          "type": "string"
        }
      ],
      "stateMutability": "view",
      "type": "function",
      "constant": true
    },
    {
      "inputs": [
        {
          "internalType": "uint256",
          "name": "id",
          "type": "uint256"
        }
      ],
      "name": "getMaterialDimensionHeight",
      "outputs": [
        {
          "internalType": "uint256",
          "name": "",
          "type": "uint256"
        },
        {
          "internalType": "string",
          "name": "",
          "type": "string"
        }
      ],
      "stateMutability": "view",
      "type": "function",
      "constant": true
    },
    {
      "inputs": [
        {
          "internalType": "uint256",
          "name": "id",
          "type": "uint256"
        }
      ],
      "name": "getMaterialDimensionVolume",
      "outputs": [
        {
          "internalType": "uint256",
          "name": "",
          "type": "uint256"
        },
        {
          "internalType": "string",
          "name": "",
          "type": "string"
        }
      ],
      "stateMutability": "view",
      "type": "function",
      "constant": true
    },
    {
      "inputs": [
        {
          "internalType": "uint256",
          "name": "id",
          "type": "uint256"
        }
      ],
      "name": "getMaterialDimensionQuantity",
      "outputs": [
        {
          "internalType": "uint256",
          "name": "",
          "type": "uint256"
        },
        {
          "internalType": "string",
          "name": "",
          "type": "string"
        }
      ],
      "stateMutability": "view",
      "type": "function",
      "constant": true
    }
  ],
  "bytecode": "0x608060405234801561000f575f80fd5b505f80819055503360015f6101000a81548173ffffffffffffffffffffffffffffffffffffffff021916908373ffffffffffffffffffffffffffffffffffffffff1602179055506130cd806100635f395ff3fe608060405234801561000f575f80fd5b506004361061014b575f3560e01c806386744004116100c1578063b88da7591161007a578063b88da75914610470578063bb0b0897146104a0578063c5694a86146104d1578063db70d3d614610501578063de9df80614610531578063f1fa906c146105615761014b565b8063867440041461033c57806395fff3741461036d578063a950ecf6146103a5578063af4cfa0f146103d6578063b0fa0e5d14610406578063b3cb9475146104365761014b565b80635c622a0e116101135780635c622a0e1461022e5780636fb013e01461025e57806372175aa21461027a578063761a8b4b146102aa57806378020413146102da5780637b1ec4661461030b5761014b565b806302d05d3f1461014f5780630ba2201d1461016d57806344eea5881461019e578063466cbee1146101ce5780634f4b31e7146101fe575b5f80fd5b610157610591565b6040516101649190612042565b60405180910390f35b6101876004803603810190610182919061209f565b6105b6565b604051610195929190612163565b60405180910390f35b6101b860048036038101906101b3919061209f565b61069d565b6040516101c59190612191565b60405180910390f35b6101e860048036038101906101e3919061209f565b6106ba565b6040516101f591906121aa565b60405180910390f35b610218600480360381019061021391906122f6565b61075e565b6040516102259190612191565b60405180910390f35b6102486004803603810190610243919061209f565b610915565b6040516102559190612191565b60405180910390f35b610278600480360381019061027391906125d9565b610932565b005b610294600480360381019061028f919061209f565b610ae9565b6040516102a191906121aa565b60405180910390f35b6102c460048036038101906102bf919061209f565b610b8d565b6040516102d191906121aa565b60405180910390f35b6102f460048036038101906102ef919061209f565b610c31565b604051610302929190612163565b60405180910390f35b6103256004803603810190610320919061209f565b610cf0565b604051610333929190612163565b60405180910390f35b6103566004803603810190610351919061209f565b610daf565b604051610364929190612163565b60405180910390f35b6103876004803603810190610382919061209f565b610e6e565b60405161039c99989796959493929190612753565b60405180910390f35b6103bf60048036038101906103ba919061209f565b6110d0565b6040516103cd929190612163565b60405180910390f35b6103f060048036038101906103eb919061209f565b61118f565b6040516103fd9190612959565b60405180910390f35b610420600480360381019061041b919061209f565b6114c6565b60405161042d91906121aa565b60405180910390f35b610450600480360381019061044b919061209f565b61156a565b6040516104679b9a99989796959493929190612979565b60405180910390f35b61048a6004803603810190610485919061209f565b61185e565b6040516104979190612191565b60405180910390f35b6104ba60048036038101906104b5919061209f565b61187b565b6040516104c8929190612163565b60405180910390f35b6104eb60048036038101906104e6919061209f565b611960565b6040516104f89190612191565b60405180910390f35b61051b6004803603810190610516919061209f565b61197d565b6040516105289190612c93565b60405180910390f35b61054b6004803603810190610546919061209f565b611d23565b6040516105589190612191565b60405180910390f35b61057b6004803603810190610576919061209f565b611d40565b60405161058891906121aa565b60405180910390f35b60015f9054906101000a900473ffffffffffffffffffffffffffffffffffffffff1681565b5f606060035f8481526020019081526020015f206001016001600281106105e0576105df612cb3565b5b015460035f8581526020019081526020015f2060070160016002811061060957610608612cb3565b5b0180805461061690612d0d565b80601f016020809104026020016040519081016040528092919081815260200182805461064290612d0d565b801561068d5780601f106106645761010080835404028352916020019161068d565b820191905f5260205f20905b81548152906001019060200180831161067057829003601f168201915b5050505050905091509150915091565b5f60025f8381526020019081526020015f20600501549050919050565b606060025f8381526020019081526020015f20600a0180546106db90612d0d565b80601f016020809104026020016040519081016040528092919081815260200182805461070790612d0d565b80156107525780601f1061072957610100808354040283529160200191610752565b820191905f5260205f20905b81548152906001019060200180831161073557829003601f168201915b50505050509050919050565b5f60015f9054906101000a900473ffffffffffffffffffffffffffffffffffffffff1673ffffffffffffffffffffffffffffffffffffffff163373ffffffffffffffffffffffffffffffffffffffff16146107ee576040517f08c379a00000000000000000000000000000000000000000000000000000000081526004016107e590612dad565b60405180910390fd5b6107f6611de4565b6040518061016001604052805f5481526020018c81526020018b81526020018a81526020018981526020018881526020018781526020018681526020018581526020018481526020018381525060025f805481526020019081526020015f205f820151815f015560208201518160010190816108729190612f68565b5060408201518160020190816108889190612f68565b50606082015181600301908161089e9190612f68565b5060808201518160040190816108b49190612f68565b5060a0820151816005015560c0820151816006015560e082015181600701556101008201518160080155610120820151816009015561014082015181600a0190816108ff9190612f68565b509050505f5490509a9950505050505050505050565b5f60025f8381526020019081526020015f20600901549050919050565b60015f9054906101000a900473ffffffffffffffffffffffffffffffffffffffff1673ffffffffffffffffffffffffffffffffffffffff163373ffffffffffffffffffffffffffffffffffffffff16146109c1576040517f08c379a00000000000000000000000000000000000000000000000000000000081526004016109b890612dad565b60405180910390fd5b6040518061016001604052808c81526020018b81526020018a81526020018981526020018881526020018781526020018681526020018581526020018481526020018381526020018281525060035f8d81526020019081526020015f205f820151815f0155602082015181600101906002610a3d929190611dfe565b5060408201518160030155606082015181600401556080820151816005015560a0820151816006015560c082015181600701906002610a7d929190611e3e565b5060e0820151816009019081610a939190612f68565b5061010082015181600a019081610aaa9190612f68565b5061012082015181600b019081610ac19190612f68565b5061014082015181600c019081610ad89190612f68565b509050505050505050505050505050565b606060025f8381526020019081526020015f206004018054610b0a90612d0d565b80601f0160208091040260200160405190810160405280929190818152602001828054610b3690612d0d565b8015610b815780601f10610b5857610100808354040283529160200191610b81565b820191905f5260205f20905b815481529060010190602001808311610b6457829003601f168201915b50505050509050919050565b606060025f8381526020019081526020015f206002018054610bae90612d0d565b80601f0160208091040260200160405190810160405280929190818152602001828054610bda90612d0d565b8015610c255780601f10610bfc57610100808354040283529160200191610c25565b820191905f5260205f20905b815481529060010190602001808311610c0857829003601f168201915b50505050509050919050565b5f606060035f8481526020019081526020015f206004015460035f8581526020019081526020015f20600a01808054610c6990612d0d565b80601f0160208091040260200160405190810160405280929190818152602001828054610c9590612d0d565b8015610ce05780601f10610cb757610100808354040283529160200191610ce0565b820191905f5260205f20905b815481529060010190602001808311610cc357829003601f168201915b5050505050905091509150915091565b5f606060035f8481526020019081526020015f206003015460035f8581526020019081526020015f20600901808054610d2890612d0d565b80601f0160208091040260200160405190810160405280929190818152602001828054610d5490612d0d565b8015610d9f5780601f10610d7657610100808354040283529160200191610d9f565b820191905f5260205f20905b815481529060010190602001808311610d8257829003601f168201915b5050505050905091509150915091565b5f606060035f8481526020019081526020015f206006015460035f8581526020019081526020015f20600c01808054610de790612d0d565b80601f0160208091040260200160405190810160405280929190818152602001828054610e1390612d0d565b8015610e5e5780601f10610e3557610100808354040283529160200191610e5e565b820191905f5260205f20905b815481529060010190602001808311610e4157829003601f168201915b5050505050905091509150915091565b6003602052805f5260405f205f91509050805f015490806003015490806004015490806005015490806006015490806009018054610eab90612d0d565b80601f0160208091040260200160405190810160405280929190818152602001828054610ed790612d0d565b8015610f225780601f10610ef957610100808354040283529160200191610f22565b820191905f5260205f20905b815481529060010190602001808311610f0557829003601f168201915b50505050509080600a018054610f3790612d0d565b80601f0160208091040260200160405190810160405280929190818152602001828054610f6390612d0d565b8015610fae5780601f10610f8557610100808354040283529160200191610fae565b820191905f5260205f20905b815481529060010190602001808311610f9157829003601f168201915b50505050509080600b018054610fc390612d0d565b80601f0160208091040260200160405190810160405280929190818152602001828054610fef90612d0d565b801561103a5780601f106110115761010080835404028352916020019161103a565b820191905f5260205f20905b81548152906001019060200180831161101d57829003601f168201915b50505050509080600c01805461104f90612d0d565b80601f016020809104026020016040519081016040528092919081815260200182805461107b90612d0d565b80156110c65780601f1061109d576101008083540402835291602001916110c6565b820191905f5260205f20905b8154815290600101906020018083116110a957829003601f168201915b5050505050905089565b5f606060035f8481526020019081526020015f206005015460035f8581526020019081526020015f20600b0180805461110890612d0d565b80601f016020809104026020016040519081016040528092919081815260200182805461113490612d0d565b801561117f5780601f106111565761010080835404028352916020019161117f565b820191905f5260205f20905b81548152906001019060200180831161116257829003601f168201915b5050505050905091509150915091565b611197611e8a565b60025f8381526020019081526020015f20604051806101600160405290815f82015481526020016001820180546111cd90612d0d565b80601f01602080910402602001604051908101604052809291908181526020018280546111f990612d0d565b80156112445780601f1061121b57610100808354040283529160200191611244565b820191905f5260205f20905b81548152906001019060200180831161122757829003601f168201915b5050505050815260200160028201805461125d90612d0d565b80601f016020809104026020016040519081016040528092919081815260200182805461128990612d0d565b80156112d45780601f106112ab576101008083540402835291602001916112d4565b820191905f5260205f20905b8154815290600101906020018083116112b757829003601f168201915b505050505081526020016003820180546112ed90612d0d565b80601f016020809104026020016040519081016040528092919081815260200182805461131990612d0d565b80156113645780601f1061133b57610100808354040283529160200191611364565b820191905f5260205f20905b81548152906001019060200180831161134757829003601f168201915b5050505050815260200160048201805461137d90612d0d565b80601f01602080910402602001604051908101604052809291908181526020018280546113a990612d0d565b80156113f45780601f106113cb576101008083540402835291602001916113f4565b820191905f5260205f20905b8154815290600101906020018083116113d757829003601f168201915b505050505081526020016005820154815260200160068201548152602001600782015481526020016008820154815260200160098201548152602001600a8201805461143f90612d0d565b80601f016020809104026020016040519081016040528092919081815260200182805461146b90612d0d565b80156114b65780601f1061148d576101008083540402835291602001916114b6565b820191905f5260205f20905b81548152906001019060200180831161149957829003601f168201915b5050505050815250509050919050565b606060025f8381526020019081526020015f2060030180546114e790612d0d565b80601f016020809104026020016040519081016040528092919081815260200182805461151390612d0d565b801561155e5780601f106115355761010080835404028352916020019161155e565b820191905f5260205f20905b81548152906001019060200180831161154157829003601f168201915b50505050509050919050565b6002602052805f5260405f205f91509050805f01549080600101805461158f90612d0d565b80601f01602080910402602001604051908101604052809291908181526020018280546115bb90612d0d565b80156116065780601f106115dd57610100808354040283529160200191611606565b820191905f5260205f20905b8154815290600101906020018083116115e957829003601f168201915b50505050509080600201805461161b90612d0d565b80601f016020809104026020016040519081016040528092919081815260200182805461164790612d0d565b80156116925780601f1061166957610100808354040283529160200191611692565b820191905f5260205f20905b81548152906001019060200180831161167557829003601f168201915b5050505050908060030180546116a790612d0d565b80601f01602080910402602001604051908101604052809291908181526020018280546116d390612d0d565b801561171e5780601f106116f55761010080835404028352916020019161171e565b820191905f5260205f20905b81548152906001019060200180831161170157829003601f168201915b50505050509080600401805461173390612d0d565b80601f016020809104026020016040519081016040528092919081815260200182805461175f90612d0d565b80156117aa5780601f10611781576101008083540402835291602001916117aa565b820191905f5260205f20905b81548152906001019060200180831161178d57829003601f168201915b50505050509080600501549080600601549080600701549080600801549080600901549080600a0180546117dd90612d0d565b80601f016020809104026020016040519081016040528092919081815260200182805461180990612d0d565b80156118545780601f1061182b57610100808354040283529160200191611854565b820191905f5260205f20905b81548152906001019060200180831161183757829003601f168201915b505050505090508b565b5f60025f8381526020019081526020015f20600801549050919050565b5f606060035f8481526020019081526020015f206001015f600281106118a4576118a3612cb3565b5b015460035f8581526020019081526020015f206007015f600281106118cc576118cb612cb3565b5b018080546118d990612d0d565b80601f016020809104026020016040519081016040528092919081815260200182805461190590612d0d565b80156119505780601f1061192757610100808354040283529160200191611950565b820191905f5260205f20905b81548152906001019060200180831161193357829003601f168201915b5050505050905091509150915091565b5f60025f8381526020019081526020015f20600601549050919050565b611985611ede565b60035f8381526020019081526020015f20604051806101600160405290815f8201548152602001600182016002806020026040519081016040528092919082600280156119e7576020028201915b8154815260200190600101908083116119d3575b505050505081526020016003820154815260200160048201548152602001600582015481526020016006820154815260200160078201600280602002604051908101604052809291905f905b82821015611ad4578382018054611a4990612d0d565b80601f0160208091040260200160405190810160405280929190818152602001828054611a7590612d0d565b8015611ac05780601f10611a9757610100808354040283529160200191611ac0565b820191905f5260205f20905b815481529060010190602001808311611aa357829003601f168201915b505050505081526020019060010190611a33565b505050508152602001600982018054611aec90612d0d565b80601f0160208091040260200160405190810160405280929190818152602001828054611b1890612d0d565b8015611b635780601f10611b3a57610100808354040283529160200191611b63565b820191905f5260205f20905b815481529060010190602001808311611b4657829003601f168201915b50505050508152602001600a82018054611b7c90612d0d565b80601f0160208091040260200160405190810160405280929190818152602001828054611ba890612d0d565b8015611bf35780601f10611bca57610100808354040283529160200191611bf3565b820191905f5260205f20905b815481529060010190602001808311611bd657829003601f168201915b50505050508152602001600b82018054611c0c90612d0d565b80601f0160208091040260200160405190810160405280929190818152602001828054611c3890612d0d565b8015611c835780601f10611c5a57610100808354040283529160200191611c83565b820191905f5260205f20905b815481529060010190602001808311611c6657829003601f168201915b50505050508152602001600c82018054611c9c90612d0d565b80601f0160208091040260200160405190810160405280929190818152602001828054611cc890612d0d565b8015611d135780601f10611cea57610100808354040283529160200191611d13565b820191905f5260205f20905b815481529060010190602001808311611cf657829003601f168201915b5050505050815250509050919050565b5f60025f8381526020019081526020015f20600701549050919050565b606060025f8381526020019081526020015f206001018054611d6190612d0d565b80601f0160208091040260200160405190810160405280929190818152602001828054611d8d90612d0d565b8015611dd85780601f10611daf57610100808354040283529160200191611dd8565b820191905f5260205f20905b815481529060010190602001808311611dbb57829003601f168201915b50505050509050919050565b60015f80828254611df59190613064565b92505081905550565b8260028101928215611e2d579160200282015b82811115611e2c578251825591602001919060010190611e11565b5b509050611e3a9190611f3f565b5090565b8260028101928215611e79579160200282015b82811115611e78578251829081611e689190612f68565b5091602001919060010190611e51565b5b509050611e869190611f5a565b5090565b6040518061016001604052805f8152602001606081526020016060815260200160608152602001606081526020015f81526020015f81526020015f81526020015f81526020015f8152602001606081525090565b6040518061016001604052805f8152602001611ef8611f7d565b81526020015f81526020015f81526020015f81526020015f8152602001611f1d611f9f565b8152602001606081526020016060815260200160608152602001606081525090565b5b80821115611f56575f815f905550600101611f40565b5090565b5b80821115611f79575f8181611f709190611fc6565b50600101611f5b565b5090565b6040518060400160405280600290602082028036833780820191505090505090565b60405180604001604052806002905b6060815260200190600190039081611fae5790505090565b508054611fd290612d0d565b5f825580601f10611fe35750612000565b601f0160209004905f5260205f2090810190611fff9190611f3f565b5b50565b5f73ffffffffffffffffffffffffffffffffffffffff82169050919050565b5f61202c82612003565b9050919050565b61203c81612022565b82525050565b5f6020820190506120555f830184612033565b92915050565b5f604051905090565b5f80fd5b5f80fd5b5f819050919050565b61207e8161206c565b8114612088575f80fd5b50565b5f8135905061209981612075565b92915050565b5f602082840312156120b4576120b3612064565b5b5f6120c18482850161208b565b91505092915050565b6120d38161206c565b82525050565b5f81519050919050565b5f82825260208201905092915050565b5f5b838110156121105780820151818401526020810190506120f5565b5f8484015250505050565b5f601f19601f8301169050919050565b5f612135826120d9565b61213f81856120e3565b935061214f8185602086016120f3565b6121588161211b565b840191505092915050565b5f6040820190506121765f8301856120ca565b8181036020830152612188818461212b565b90509392505050565b5f6020820190506121a45f8301846120ca565b92915050565b5f6020820190508181035f8301526121c2818461212b565b905092915050565b5f80fd5b5f80fd5b7f4e487b71000000000000000000000000000000000000000000000000000000005f52604160045260245ffd5b6122088261211b565b810181811067ffffffffffffffff82111715612227576122266121d2565b5b80604052505050565b5f61223961205b565b905061224582826121ff565b919050565b5f67ffffffffffffffff821115612264576122636121d2565b5b61226d8261211b565b9050602081019050919050565b828183375f83830152505050565b5f61229a6122958461224a565b612230565b9050828152602081018484840111156122b6576122b56121ce565b5b6122c184828561227a565b509392505050565b5f82601f8301126122dd576122dc6121ca565b5b81356122ed848260208601612288565b91505092915050565b5f805f805f805f805f806101408b8d03121561231557612314612064565b5b5f8b013567ffffffffffffffff81111561233257612331612068565b5b61233e8d828e016122c9565b9a505060208b013567ffffffffffffffff81111561235f5761235e612068565b5b61236b8d828e016122c9565b99505060408b013567ffffffffffffffff81111561238c5761238b612068565b5b6123988d828e016122c9565b98505060608b013567ffffffffffffffff8111156123b9576123b8612068565b5b6123c58d828e016122c9565b97505060806123d68d828e0161208b565b96505060a06123e78d828e0161208b565b95505060c06123f88d828e0161208b565b94505060e06124098d828e0161208b565b93505061010061241b8d828e0161208b565b9250506101208b013567ffffffffffffffff81111561243d5761243c612068565b5b6124498d828e016122c9565b9150509295989b9194979a5092959850565b5f67ffffffffffffffff821115612475576124746121d2565b5b602082029050919050565b5f80fd5b5f6124966124918461245b565b612230565b905080602084028301858111156124b0576124af612480565b5b835b818110156124d957806124c5888261208b565b8452602084019350506020810190506124b2565b5050509392505050565b5f82601f8301126124f7576124f66121ca565b5b6002612504848285612484565b91505092915050565b5f67ffffffffffffffff821115612527576125266121d2565b5b602082029050919050565b5f61254461253f8461250d565b612230565b9050806020840283018581111561255e5761255d612480565b5b835b818110156125a557803567ffffffffffffffff811115612583576125826121ca565b5b80860161259089826122c9565b85526020850194505050602081019050612560565b5050509392505050565b5f82601f8301126125c3576125c26121ca565b5b60026125d0848285612532565b91505092915050565b5f805f805f805f805f805f6101808c8e0312156125f9576125f8612064565b5b5f6126068e828f0161208b565b9b505060206126178e828f016124e3565b9a505060606126288e828f0161208b565b99505060806126398e828f0161208b565b98505060a061264a8e828f0161208b565b97505060c061265b8e828f0161208b565b96505060e08c013567ffffffffffffffff81111561267c5761267b612068565b5b6126888e828f016125af565b9550506101008c013567ffffffffffffffff8111156126aa576126a9612068565b5b6126b68e828f016122c9565b9450506101208c013567ffffffffffffffff8111156126d8576126d7612068565b5b6126e48e828f016122c9565b9350506101408c013567ffffffffffffffff81111561270657612705612068565b5b6127128e828f016122c9565b9250506101608c013567ffffffffffffffff81111561273457612733612068565b5b6127408e828f016122c9565b9150509295989b509295989b9093969950565b5f610120820190506127675f83018c6120ca565b612774602083018b6120ca565b612781604083018a6120ca565b61278e60608301896120ca565b61279b60808301886120ca565b81810360a08301526127ad818761212b565b905081810360c08301526127c1818661212b565b905081810360e08301526127d5818561212b565b90508181036101008301526127ea818461212b565b90509a9950505050505050505050565b6128038161206c565b82525050565b5f82825260208201905092915050565b5f612823826120d9565b61282d8185612809565b935061283d8185602086016120f3565b6128468161211b565b840191505092915050565b5f61016083015f8301516128675f8601826127fa565b506020830151848203602086015261287f8282612819565b915050604083015184820360408601526128998282612819565b915050606083015184820360608601526128b38282612819565b915050608083015184820360808601526128cd8282612819565b91505060a08301516128e260a08601826127fa565b5060c08301516128f560c08601826127fa565b5060e083015161290860e08601826127fa565b5061010083015161291d6101008601826127fa565b506101208301516129326101208601826127fa565b5061014083015184820361014086015261294c8282612819565b9150508091505092915050565b5f6020820190508181035f8301526129718184612851565b905092915050565b5f6101608201905061298d5f83018e6120ca565b818103602083015261299f818d61212b565b905081810360408301526129b3818c61212b565b905081810360608301526129c7818b61212b565b905081810360808301526129db818a61212b565b90506129ea60a08301896120ca565b6129f760c08301886120ca565b612a0460e08301876120ca565b612a126101008301866120ca565b612a206101208301856120ca565b818103610140830152612a33818461212b565b90509c9b505050505050505050505050565b5f60029050919050565b5f81905092915050565b5f819050919050565b5f612a6d83836127fa565b60208301905092915050565b5f602082019050919050565b612a8e81612a45565b612a988184612a4f565b9250612aa382612a59565b805f5b83811015612ad3578151612aba8782612a62565b9650612ac583612a79565b925050600181019050612aa6565b505050505050565b5f60029050919050565b5f81905092915050565b5f819050919050565b5f612b038383612819565b905092915050565b5f602082019050919050565b5f612b2182612adb565b612b2b8185612ae5565b935083602082028501612b3d85612aef565b805f5b85811015612b785784840389528151612b598582612af8565b9450612b6483612b0b565b925060208a01995050600181019050612b40565b50829750879550505050505092915050565b5f61018083015f830151612ba05f8601826127fa565b506020830151612bb36020860182612a85565b506040830151612bc660608601826127fa565b506060830151612bd960808601826127fa565b506080830151612bec60a08601826127fa565b5060a0830151612bff60c08601826127fa565b5060c083015184820360e0860152612c178282612b17565b91505060e0830151848203610100860152612c328282612819565b915050610100830151848203610120860152612c4e8282612819565b915050610120830151848203610140860152612c6a8282612819565b915050610140830151848203610160860152612c868282612819565b9150508091505092915050565b5f6020820190508181035f830152612cab8184612b8a565b905092915050565b7f4e487b71000000000000000000000000000000000000000000000000000000005f52603260045260245ffd5b7f4e487b71000000000000000000000000000000000000000000000000000000005f52602260045260245ffd5b5f6002820490506001821680612d2457607f821691505b602082108103612d3757612d36612ce0565b5b50919050565b7f4f6e6c792074686520636f6e74726163742063726561746f722063616e2063615f8201527f6c6c2074686973206d6574686f64000000000000000000000000000000000000602082015250565b5f612d97602e836120e3565b9150612da282612d3d565b604082019050919050565b5f6020820190508181035f830152612dc481612d8b565b9050919050565b5f819050815f5260205f209050919050565b5f6020601f8301049050919050565b5f82821b905092915050565b5f60088302612e277fffffffffffffffffffffffffffffffffffffffffffffffffffffffffffffffff82612dec565b612e318683612dec565b95508019841693508086168417925050509392505050565b5f819050919050565b5f612e6c612e67612e628461206c565b612e49565b61206c565b9050919050565b5f819050919050565b612e8583612e52565b612e99612e9182612e73565b848454612df8565b825550505050565b5f90565b612ead612ea1565b612eb8818484612e7c565b505050565b5b81811015612edb57612ed05f82612ea5565b600181019050612ebe565b5050565b601f821115612f2057612ef181612dcb565b612efa84612ddd565b81016020851015612f09578190505b612f1d612f1585612ddd565b830182612ebd565b50505b505050565b5f82821c905092915050565b5f612f405f1984600802612f25565b1980831691505092915050565b5f612f588383612f31565b9150826002028217905092915050565b612f71826120d9565b67ffffffffffffffff811115612f8a57612f896121d2565b5b612f948254612d0d565b612f9f828285612edf565b5f60209050601f831160018114612fd0575f8415612fbe578287015190505b612fc88582612f4d565b86555061302f565b601f198416612fde86612dcb565b5f5b8281101561300557848901518255600182019150602085019450602081019050612fe0565b86831015613022578489015161301e601f891682612f31565b8355505b6001600288020188555050505b505050505050565b7f4e487b71000000000000000000000000000000000000000000000000000000005f52601160045260245ffd5b5f61306e8261206c565b91506130798361206c565b925082820190508082111561309157613090613037565b5b9291505056fea26469706673582212207209c7f5a4e819a08c92853f19e14ae953e453f72dc0aee703f4732d3f6f514d64736f6c63430008140033",
  "immutableReferences": {},
  "source": "// SPDX-License-Identifier: GPL-3.0\r\n\r\npragma solidity >=0.7.0 <0.9.0;\r\n\r\n/** \r\n * @title PackagingAgreements\r\n * @dev Implements PackagingAgreements \r\n */\r\ncontract PackagingAgreements {\r\n\r\n    struct PackagingAgreement {\r\n        uint id;\r\n        string projectName;\r\n        string internalNumber;\r\n        string externalNumber;\r\n        string processor;\r\n\r\n        uint dueDate;\r\n        uint trialDeliveryStartDate;\r\n        uint productiveDeliveryStartdate;\r\n        uint version;\r\n        uint status;\r\n\r\n        string materialNumberInternal;\r\n    }\r\n\r\n    struct MaterialDimensions {\r\n        uint id;\r\n        uint[2] length_breadth;\r\n        uint weight;\r\n        uint height;\r\n        uint volume;\r\n        uint fillingQuantity;\r\n\r\n        string[2] lengthUOM_breadthUOM;\r\n        string weightUOM;\r\n        string heightUOM;\r\n        string volumeUOM;\r\n        string quantityUOM;\r\n    }\r\n\r\n\r\n    modifier onlyCreator() {\r\n        require(msg.sender == creator, \"Only the contract creator can call this method\");\r\n        _;\r\n    }\r\n\r\n    uint256 private index;\r\n    address public creator;\r\n    mapping(uint => PackagingAgreement) public packagingAgreement;\r\n    mapping(uint => MaterialDimensions) public materialDimensions;\r\n\r\n    constructor() {\r\n        index = 0;\r\n        creator = msg.sender;\r\n    }\r\n\r\n    function incrementIndex() internal{\r\n        index += 1;\r\n    }\r\n\r\n    function createPackagingAgreement (\r\n        string memory _projectName, \r\n        string memory _internalNumber,\r\n        string memory _externalNumber,\r\n        string memory _processor,\r\n\r\n        uint _dueDate,\r\n        uint _trialDeliveryStartDate,\r\n        uint _productiveDeliveryStartdate,\r\n        uint _version,\r\n        uint _status,\r\n\r\n        string memory _materialNumberInternal\r\n    ) \r\n    public\r\n    onlyCreator\r\n    returns(uint)\r\n    {\r\n        incrementIndex();\r\n        packagingAgreement[index] = PackagingAgreement(\r\n            index, \r\n            _projectName, \r\n            _internalNumber,\r\n            _externalNumber,\r\n            _processor,\r\n            _dueDate,\r\n            _trialDeliveryStartDate,\r\n            _productiveDeliveryStartdate,\r\n            _version,\r\n            _status,\r\n            _materialNumberInternal\r\n        );\r\n        return index;\r\n    }\r\n    \r\n    function createMaterialDimensions (\r\n        uint _id,\r\n        uint[2] memory _length_breadth,\r\n        uint _weight,\r\n        uint _height,\r\n        uint _volume,\r\n        uint _fillingQuantity,\r\n\r\n        string[2] memory _lengthUOM_breadthUOM,\r\n        string memory _weightUOM,\r\n        string memory _heightUOM,\r\n        string memory _volumeUOM,\r\n        string memory _quantityUOM\r\n    ) \r\n    public\r\n    onlyCreator\r\n    {\r\n        materialDimensions[_id] = MaterialDimensions(\r\n            _id, \r\n            _length_breadth, \r\n            _weight,\r\n            _height,\r\n            _volume,\r\n            _fillingQuantity,\r\n            _lengthUOM_breadthUOM,\r\n            _weightUOM,\r\n            _heightUOM,\r\n            _volumeUOM,\r\n            _quantityUOM\r\n        );\r\n    }\r\n\r\n    function getPackagingAgreement(uint id) public view returns(PackagingAgreement memory){\r\n        return packagingAgreement[id];\r\n    }\r\n    function getProjectName(uint id) public view returns(string memory){\r\n        return packagingAgreement[id].projectName;\r\n    }\r\n    function getInternalNumber(uint id) public view returns(string memory){\r\n        return packagingAgreement[id].internalNumber;\r\n    }\r\n    function getExternalNumber(uint id) public view returns(string memory){\r\n        return packagingAgreement[id].externalNumber;\r\n    }\r\n    function getProcessor(uint id) public view returns(string memory){\r\n        return packagingAgreement[id].processor;\r\n    }\r\n    function getMaterialNumberInternal(uint id) public view returns(string memory){\r\n        return packagingAgreement[id].materialNumberInternal;\r\n    }\r\n    function getDueDate(uint id) public view returns(uint){\r\n        return packagingAgreement[id].dueDate;\r\n    }\r\n    function getTrialDeliveryStartDate(uint id) public view returns(uint){\r\n        return packagingAgreement[id].trialDeliveryStartDate;\r\n    }\r\n    function getProductiveDeliveryStartdate(uint id) public view returns(uint){\r\n        return packagingAgreement[id].productiveDeliveryStartdate;\r\n    }\r\n    function getVersion(uint id) public view returns(uint){\r\n        return packagingAgreement[id].version;\r\n    }\r\n    function getStatus(uint id) public view returns(uint){\r\n        return packagingAgreement[id].status;\r\n    }\r\n\r\n    function getMaterialDimension(uint id) public view returns(MaterialDimensions memory){\r\n        return materialDimensions[id];\r\n    }\r\n    function getMaterialDimensionLength(uint id) public view returns(uint, string memory){\r\n        return (\r\n            materialDimensions[id].length_breadth[0],\r\n            materialDimensions[id].lengthUOM_breadthUOM[0]\r\n        );\r\n    }\r\n    function getMaterialDimensionBreadth(uint id) public view returns(uint, string memory){\r\n        return (\r\n            materialDimensions[id].length_breadth[1],\r\n            materialDimensions[id].lengthUOM_breadthUOM[1]\r\n        );\r\n    }\r\n    function getMaterialDimensionWeight(uint id) public view returns(uint, string memory){\r\n        return (\r\n            materialDimensions[id].weight,\r\n            materialDimensions[id].weightUOM\r\n        );\r\n    }\r\n    function getMaterialDimensionHeight(uint id) public view returns(uint, string memory){\r\n        return (\r\n            materialDimensions[id].height,\r\n            materialDimensions[id].heightUOM\r\n        );\r\n    }\r\n    function getMaterialDimensionVolume(uint id) public view returns(uint, string memory){\r\n        return (\r\n            materialDimensions[id].volume,\r\n            materialDimensions[id].volumeUOM\r\n        );\r\n    }\r\n    function getMaterialDimensionQuantity(uint id) public view returns(uint, string memory){\r\n        return (\r\n            materialDimensions[id].fillingQuantity,\r\n            materialDimensions[id].quantityUOM\r\n        );\r\n    }\r\n}",
  "sourcePath": "C:\\Users\\I526518\\Desktop\\Dissertation\\New_folder\\app\\smartContract\\contracts\\PackagingAgreements.sol",
  "compiler": {
    "name": "solc",
    "version": "0.8.20+commit.a1b79de6.Emscripten.clang"
  },
  "schemaVersion": "3.4.13",
  "updatedAt": "2023-06-05T17:52:29.486Z",
  "networkType": "ethereum",
  "devdoc": {
    "details": "Implements PackagingAgreements ",
    "kind": "dev",
    "methods": {},
    "title": "PackagingAgreements",
    "version": 1
  },
  "userdoc": {
    "kind": "user",
    "methods": {},
    "version": 1
  }
}